{
  "address": "0x5FbDB2315678afecb367f032d93F642f64180aa3",
  "abi": [
    {
      "anonymous": false,
      "inputs": [
        {
          "indexed": true,
          "internalType": "address",
          "name": "account",
          "type": "address"
        },
        {
          "indexed": false,
          "internalType": "uint256",
          "name": "amount",
          "type": "uint256"
        }
      ],
      "name": "etherDeposited",
      "type": "event"
    },
    {
      "anonymous": false,
      "inputs": [
        {
          "indexed": true,
          "internalType": "address",
          "name": "account",
          "type": "address"
        },
        {
          "indexed": false,
          "internalType": "uint256",
          "name": "amount",
          "type": "uint256"
        }
      ],
      "name": "etherWithdrawed",
      "type": "event"
    },
    {
      "inputs": [],
      "name": "deposit",
      "outputs": [],
      "stateMutability": "payable",
      "type": "function"
    },
    {
      "inputs": [],
      "name": "getBalanceAndLastDeposit",
      "outputs": [
        {
          "components": [
            {
              "internalType": "uint256",
              "name": "balance",
              "type": "uint256"
            },
            {
              "internalType": "uint256",
              "name": "lastDeposit",
              "type": "uint256"
            }
          ],
          "internalType": "struct Bank.Account",
          "name": "",
          "type": "tuple"
        }
      ],
      "stateMutability": "view",
      "type": "function"
    },
    {
      "inputs": [],
      "name": "getBalanceOfUser",
      "outputs": [
        {
          "internalType": "uint256",
          "name": "",
          "type": "uint256"
        }
      ],
      "stateMutability": "view",
      "type": "function"
    },
    {
      "inputs": [
        {
          "internalType": "uint256",
          "name": "_amount",
          "type": "uint256"
        }
      ],
      "name": "withdraw",
      "outputs": [],
      "stateMutability": "nonpayable",
      "type": "function"
    }
  ],
  "transactionHash": "0x3105a0f376b5b9b11d8345c9e919217cd8ad49ed7878ae99d9c33caa1b660c1a",
  "args": [],
  "numDeployments": 1,
  "solcInputHash": "a1f9ac25e9d9506fcce2bc4ffc3f447d",
  "bytecode": "0x608060405234801561001057600080fd5b506107f8806100206000396000f3fe60806040526004361061003f5760003560e01c80632e1a7d4d1461004457806358d9600c1461006d57806379982de414610098578063d0e30db0146100c3575b600080fd5b34801561005057600080fd5b5061006b600480360381019061006691906104e0565b6100cd565b005b34801561007957600080fd5b506100826102a7565b60405161008f919061054b565b60405180910390f35b3480156100a457600080fd5b506100ad610311565b6040516100ba9190610575565b60405180910390f35b6100cb61035a565b005b806000803373ffffffffffffffffffffffffffffffffffffffff1673ffffffffffffffffffffffffffffffffffffffff168152602001908152602001600020600001541015610151576040517f08c379a0000000000000000000000000000000000000000000000000000000008152600401610148906105ed565b60405180910390fd5b806000803373ffffffffffffffffffffffffffffffffffffffff1673ffffffffffffffffffffffffffffffffffffffff16815260200190815260200160002060000160008282546101a2919061063c565b9250508190555060003373ffffffffffffffffffffffffffffffffffffffff16826040516101cf906106a1565b60006040518083038185875af1925050503d806000811461020c576040519150601f19603f3d011682016040523d82523d6000602084013e610211565b606091505b5050905080610255576040517f08c379a000000000000000000000000000000000000000000000000000000000815260040161024c90610702565b60405180910390fd5b3373ffffffffffffffffffffffffffffffffffffffff167f47ed555d8b6242a89fcdab94795dc91c98a0e46db88f4a2b2bda3371956fd0d08360405161029b9190610575565b60405180910390a25050565b6102af61048b565b6000803373ffffffffffffffffffffffffffffffffffffffff1673ffffffffffffffffffffffffffffffffffffffff16815260200190815260200160002060405180604001604052908160008201548152602001600182015481525050905090565b60008060003373ffffffffffffffffffffffffffffffffffffffff1673ffffffffffffffffffffffffffffffffffffffff16815260200190815260200160002060000154905090565b6000341161039d576040517f08c379a00000000000000000000000000000000000000000000000000000000081526004016103949061076e565b60405180910390fd5b346000803373ffffffffffffffffffffffffffffffffffffffff1673ffffffffffffffffffffffffffffffffffffffff16815260200190815260200160002060000160008282546103ee919061078e565b92505081905550426000803373ffffffffffffffffffffffffffffffffffffffff1673ffffffffffffffffffffffffffffffffffffffff168152602001908152602001600020600101819055503373ffffffffffffffffffffffffffffffffffffffff167f4de483450f36dd8489373cf9166b2260f09ae72422d836e12fd9565cec1cb91e346040516104819190610575565b60405180910390a2565b604051806040016040528060008152602001600081525090565b600080fd5b6000819050919050565b6104bd816104aa565b81146104c857600080fd5b50565b6000813590506104da816104b4565b92915050565b6000602082840312156104f6576104f56104a5565b5b6000610504848285016104cb565b91505092915050565b610516816104aa565b82525050565b604082016000820151610532600085018261050d565b506020820151610545602085018261050d565b50505050565b6000604082019050610560600083018461051c565b92915050565b61056f816104aa565b82525050565b600060208201905061058a6000830184610566565b92915050565b600082825260208201905092915050565b7f4e6f7420656e6f7567682066756e647300000000000000000000000000000000600082015250565b60006105d7601083610590565b91506105e2826105a1565b602082019050919050565b60006020820190508181036000830152610606816105ca565b9050919050565b7f4e487b7100000000000000000000000000000000000000000000000000000000600052601160045260246000fd5b6000610647826104aa565b9150610652836104aa565b925082820390508181111561066a5761066961060d565b5b92915050565b600081905092915050565b50565b600061068b600083610670565b91506106968261067b565b600082019050919050565b60006106ac8261067e565b9150819050919050565b7f416e206572726f72206f63637572656400000000000000000000000000000000600082015250565b60006106ec601083610590565b91506106f7826106b6565b602082019050919050565b6000602082019050818103600083015261071b816106df565b9050919050565b7f4e6f7420656e6f7567682066756e6473206465706f7369746564000000000000600082015250565b6000610758601a83610590565b915061076382610722565b602082019050919050565b600060208201905081810360008301526107878161074b565b9050919050565b6000610799826104aa565b91506107a4836104aa565b92508282019050808211156107bc576107bb61060d565b5b9291505056fea2646970667358221220b10a71632a907f5d484f7b1a245dc5879ad2ca1f7e70daf1efb620b07de749ff64736f6c63430008110033",
  "devdoc": {
    "kind": "dev",
    "methods": {
      "getBalanceAndLastDeposit()": {
        "returns": {
          "_0": "The balance of the last Deposit"
        }
      }
    },
    "version": 1
  },
  "userdoc": {
    "kind": "user",
    "methods": {
      "getBalanceAndLastDeposit()": {
        "notice": "Get the Balance of the last deposit"
      }
    },
    "version": 1
  },
  "storageLayout": {
    "storage": [
      {
        "astId": 11,
        "contract": "contracts/Bank.sol:Bank",
        "label": "accounts",
        "offset": 0,
        "slot": "0",
        "type": "t_mapping(t_address,t_struct(Account)6_storage)"
      }
    ],
    "types": {
      "t_address": {
        "encoding": "inplace",
        "label": "address",
        "numberOfBytes": "20"
      },
      "t_mapping(t_address,t_struct(Account)6_storage)": {
        "encoding": "mapping",
        "key": "t_address",
        "label": "mapping(address => struct Bank.Account)",
        "numberOfBytes": "32",
        "value": "t_struct(Account)6_storage"
      },
      "t_struct(Account)6_storage": {
        "encoding": "inplace",
        "label": "struct Bank.Account",
        "members": [
          {
            "astId": 3,
            "contract": "contracts/Bank.sol:Bank",
            "label": "balance",
            "offset": 0,
            "slot": "0",
            "type": "t_uint256"
          },
          {
            "astId": 5,
            "contract": "contracts/Bank.sol:Bank",
            "label": "lastDeposit",
            "offset": 0,
            "slot": "1",
            "type": "t_uint256"
          }
        ],
        "numberOfBytes": "64"
      },
      "t_uint256": {
        "encoding": "inplace",
        "label": "uint256",
        "numberOfBytes": "32"
      }
    }
  }
}